{
	"contracts/demo2.sol": {
		"demo2": {
			"abi": [
				{
					"inputs": [
						{
							"internalType": "uint256",
							"name": "initOffset",
							"type": "uint256"
						}
					],
					"stateMutability": "nonpayable",
					"type": "constructor"
				},
				{
					"inputs": [
						{
							"internalType": "uint256",
							"name": "x",
							"type": "uint256"
						}
					],
					"name": "getResult",
					"outputs": [
						{
							"internalType": "string",
							"name": "",
							"type": "string"
						}
					],
					"stateMutability": "view",
					"type": "function"
				},
				{
					"inputs": [
						{
							"internalType": "uint256",
							"name": "newOffset",
							"type": "uint256"
						}
					],
					"name": "setNewOffset",
					"outputs": [],
					"stateMutability": "nonpayable",
					"type": "function"
				}
			],
			"devdoc": {
				"kind": "dev",
				"methods": {},
				"version": 1
			},
			"evm": {
				"assembly": "    /* \"contracts/demo2.sol\":64:887  contract demo2 {\r... */\n  mstore(0x40, 0x80)\n    /* \"contracts/demo2.sol\":104:171  constructor(uint initOffset) {\r... */\n  callvalue\n  dup1\n  iszero\n  tag_1\n  jumpi\n  0x00\n  dup1\n  revert\ntag_1:\n  pop\n  mload(0x40)\n  sub(codesize, bytecodeSize)\n  dup1\n  bytecodeSize\n  dup4\n  codecopy\n  dup2\n  dup2\n  add\n  0x40\n  mstore\n  0x20\n  dup2\n  lt\n  iszero\n  tag_2\n  jumpi\n  0x00\n  dup1\n  revert\ntag_2:\n  dup2\n  add\n  swap1\n  dup1\n  dup1\n  mload\n  swap1\n  0x20\n  add\n  swap1\n  swap3\n  swap2\n  swap1\n  pop\n  pop\n  pop\n    /* \"contracts/demo2.sol\":153:163  initOffset */\n  dup1\n    /* \"contracts/demo2.sol\":144:150  offset */\n  0x00\n    /* \"contracts/demo2.sol\":144:163  offset = initOffset */\n  dup2\n  swap1\n  sstore\n  pop\n    /* \"contracts/demo2.sol\":104:171  constructor(uint initOffset) {\r... */\n  pop\n    /* \"contracts/demo2.sol\":64:887  contract demo2 {\r... */\n  dataSize(sub_0)\n  dup1\n  dataOffset(sub_0)\n  0x00\n  codecopy\n  0x00\n  return\nstop\n\nsub_0: assembly {\n        /* \"contracts/demo2.sol\":64:887  contract demo2 {\r... */\n      mstore(0x40, 0x80)\n      callvalue\n      dup1\n      iszero\n      tag_1\n      jumpi\n      0x00\n      dup1\n      revert\n    tag_1:\n      pop\n      jumpi(tag_2, lt(calldatasize, 0x04))\n      shr(0xe0, calldataload(0x00))\n      dup1\n      0x59c1c13f\n      eq\n      tag_3\n      jumpi\n      dup1\n      0x995e4339\n      eq\n      tag_4\n      jumpi\n    tag_2:\n      0x00\n      dup1\n      revert\n        /* \"contracts/demo2.sol\":177:260  function setNewOffset(uint newOffset) public  {\r... */\n    tag_3:\n      tag_5\n      0x04\n      dup1\n      calldatasize\n      sub\n      0x20\n      dup2\n      lt\n      iszero\n      tag_6\n      jumpi\n      0x00\n      dup1\n      revert\n    tag_6:\n      dup2\n      add\n      swap1\n      dup1\n      dup1\n      calldataload\n      swap1\n      0x20\n      add\n      swap1\n      swap3\n      swap2\n      swap1\n      pop\n      pop\n      pop\n      tag_7\n      jump\t// in\n    tag_5:\n      stop\n        /* \"contracts/demo2.sol\":266:388  function getResult(uint x) view public returns (string memory) {        \r... */\n    tag_4:\n      tag_8\n      0x04\n      dup1\n      calldatasize\n      sub\n      0x20\n      dup2\n      lt\n      iszero\n      tag_9\n      jumpi\n      0x00\n      dup1\n      revert\n    tag_9:\n      dup2\n      add\n      swap1\n      dup1\n      dup1\n      calldataload\n      swap1\n      0x20\n      add\n      swap1\n      swap3\n      swap2\n      swap1\n      pop\n      pop\n      pop\n      tag_10\n      jump\t// in\n    tag_8:\n      mload(0x40)\n      dup1\n      dup1\n      0x20\n      add\n      dup3\n      dup2\n      sub\n      dup3\n      mstore\n      dup4\n      dup2\n      dup2\n      mload\n      dup2\n      mstore\n      0x20\n      add\n      swap2\n      pop\n      dup1\n      mload\n      swap1\n      0x20\n      add\n      swap1\n      dup1\n      dup4\n      dup4\n      0x00\n    tag_11:\n      dup4\n      dup2\n      lt\n      iszero\n      tag_13\n      jumpi\n      dup1\n      dup3\n      add\n      mload\n      dup2\n      dup5\n      add\n      mstore\n      0x20\n      dup2\n      add\n      swap1\n      pop\n      jump(tag_11)\n    tag_13:\n      pop\n      pop\n      pop\n      pop\n      swap1\n      pop\n      swap1\n      dup2\n      add\n      swap1\n      0x1f\n      and\n      dup1\n      iszero\n      tag_14\n      jumpi\n      dup1\n      dup3\n      sub\n      dup1\n      mload\n      0x01\n      dup4\n      0x20\n      sub\n      0x0100\n      exp\n      sub\n      not\n      and\n      dup2\n      mstore\n      0x20\n      add\n      swap2\n      pop\n    tag_14:\n      pop\n      swap3\n      pop\n      pop\n      pop\n      mload(0x40)\n      dup1\n      swap2\n      sub\n      swap1\n      return\n        /* \"contracts/demo2.sol\":177:260  function setNewOffset(uint newOffset) public  {\r... */\n    tag_7:\n        /* \"contracts/demo2.sol\":243:252  newOffset */\n      dup1\n        /* \"contracts/demo2.sol\":234:240  offset */\n      0x00\n        /* \"contracts/demo2.sol\":234:252  offset = newOffset */\n      dup2\n      swap1\n      sstore\n      pop\n        /* \"contracts/demo2.sol\":177:260  function setNewOffset(uint newOffset) public  {\r... */\n      pop\n      jump\t// out\n        /* \"contracts/demo2.sol\":266:388  function getResult(uint x) view public returns (string memory) {        \r... */\n    tag_10:\n        /* \"contracts/demo2.sol\":314:327  string memory */\n      0x60\n        /* \"contracts/demo2.sol\":355:380  integerToString(x+offset) */\n      tag_17\n        /* \"contracts/demo2.sol\":373:379  offset */\n      sload(0x00)\n        /* \"contracts/demo2.sol\":371:372  x */\n      dup4\n        /* \"contracts/demo2.sol\":371:379  x+offset */\n      add\n        /* \"contracts/demo2.sol\":355:370  integerToString */\n      tag_18\n        /* \"contracts/demo2.sol\":355:380  integerToString(x+offset) */\n      jump\t// in\n    tag_17:\n        /* \"contracts/demo2.sol\":348:380  return integerToString(x+offset) */\n      swap1\n      pop\n        /* \"contracts/demo2.sol\":266:388  function getResult(uint x) view public returns (string memory) {        \r... */\n      swap2\n      swap1\n      pop\n      jump\t// out\n        /* \"contracts/demo2.sol\":394:884  function integerToString(uint i)private pure returns (string memory) {\r... */\n    tag_18:\n        /* \"contracts/demo2.sol\":448:461  string memory */\n      0x60\n        /* \"contracts/demo2.sol\":474:480  uint j */\n      0x00\n        /* \"contracts/demo2.sol\":481:482  i */\n      dup3\n        /* \"contracts/demo2.sol\":474:482  uint j=i */\n      swap1\n      pop\n        /* \"contracts/demo2.sol\":500:501  0 */\n      0x00\n        /* \"contracts/demo2.sol\":497:498  i */\n      dup4\n        /* \"contracts/demo2.sol\":497:501  i==0 */\n      eq\n        /* \"contracts/demo2.sol\":493:550  if (i==0) \r... */\n      iszero\n      tag_20\n      jumpi\n        /* \"contracts/demo2.sol\":528:538  return \"0\" */\n      mload(0x40)\n      dup1\n      0x40\n      add\n      0x40\n      mstore\n      dup1\n      0x01\n      dup2\n      mstore\n      0x20\n      add\n      0x3000000000000000000000000000000000000000000000000000000000000000\n      dup2\n      mstore\n      pop\n      swap2\n      pop\n      pop\n      jump(tag_19)\n        /* \"contracts/demo2.sol\":493:550  if (i==0) \r... */\n    tag_20:\n        /* \"contracts/demo2.sol\":560:568  uint len */\n      0x00\n        /* \"contracts/demo2.sol\":581:657  while (j!=0) \r... */\n    tag_21:\n        /* \"contracts/demo2.sol\":591:592  0 */\n      0x00\n        /* \"contracts/demo2.sol\":588:589  j */\n      dup3\n        /* \"contracts/demo2.sol\":588:592  j!=0 */\n      eq\n        /* \"contracts/demo2.sol\":581:657  while (j!=0) \r... */\n      tag_22\n      jumpi\n        /* \"contracts/demo2.sol\":619:624  len++ */\n      dup1\n      dup1\n      0x01\n      add\n      swap2\n      pop\n      pop\n        /* \"contracts/demo2.sol\":643:645  10 */\n      0x0a\n        /* \"contracts/demo2.sol\":641:642  j */\n      dup3\n        /* \"contracts/demo2.sol\":641:645  j/10 */\n      dup2\n      tag_23\n      jumpi\n      invalid\n    tag_23:\n      div\n        /* \"contracts/demo2.sol\":639:645  j=j/10 */\n      swap2\n      pop\n        /* \"contracts/demo2.sol\":581:657  while (j!=0) \r... */\n      jump(tag_21)\n    tag_22:\n        /* \"contracts/demo2.sol\":667:686  bytes memory result */\n      0x00\n        /* \"contracts/demo2.sol\":699:702  len */\n      dup2\n        /* \"contracts/demo2.sol\":689:703  new bytes(len) */\n      0xffffffffffffffff\n      dup2\n      gt\n      dup1\n      iszero\n      tag_24\n      jumpi\n      0x00\n      dup1\n      revert\n    tag_24:\n      pop\n      mload(0x40)\n      swap1\n      dup1\n      dup3\n      mstore\n      dup1\n      0x1f\n      add\n      not(0x1f)\n      and\n      0x20\n      add\n      dup3\n      add\n      0x40\n      mstore\n      dup1\n      iszero\n      tag_25\n      jumpi\n      dup2\n      0x20\n      add\n      0x01\n      dup3\n      mul\n      dup1\n      calldatasize\n      dup4\n      calldatacopy\n      dup1\n      dup3\n      add\n      swap2\n      pop\n      pop\n      swap1\n      pop\n    tag_25:\n      pop\n        /* \"contracts/demo2.sol\":667:703  bytes memory result = new bytes(len) */\n      swap1\n      pop\n        /* \"contracts/demo2.sol\":714:720  uint k */\n      0x00\n        /* \"contracts/demo2.sol\":726:727  1 */\n      0x01\n        /* \"contracts/demo2.sol\":722:725  len */\n      dup4\n        /* \"contracts/demo2.sol\":722:727  len-1 */\n      sub\n        /* \"contracts/demo2.sol\":714:727  uint k =len-1 */\n      swap1\n      pop\n        /* \"contracts/demo2.sol\":738:844  while (i!=0) \r... */\n    tag_26:\n        /* \"contracts/demo2.sol\":748:749  0 */\n      0x00\n        /* \"contracts/demo2.sol\":745:746  i */\n      dup7\n        /* \"contracts/demo2.sol\":745:749  i!=0 */\n      eq\n        /* \"contracts/demo2.sol\":738:844  while (i!=0) \r... */\n      tag_27\n      jumpi\n        /* \"contracts/demo2.sol\":808:810  10 */\n      0x0a\n        /* \"contracts/demo2.sol\":806:807  i */\n      dup7\n        /* \"contracts/demo2.sol\":806:810  i%10 */\n      dup2\n      tag_28\n      jumpi\n      invalid\n    tag_28:\n      mod\n        /* \"contracts/demo2.sol\":803:805  48 */\n      0x30\n        /* \"contracts/demo2.sol\":803:810  48+i%10 */\n      add\n        /* \"contracts/demo2.sol\":790:812  bytes1(uint8(48+i%10)) */\n      0xf8\n      shl\n        /* \"contracts/demo2.sol\":776:782  result */\n      dup3\n        /* \"contracts/demo2.sol\":783:786  k-- */\n      dup3\n      dup1\n      0x01\n      swap1\n      sub\n      swap4\n      pop\n        /* \"contracts/demo2.sol\":776:787  result[k--] */\n      dup2\n      mload\n      dup2\n      lt\n      tag_29\n      jumpi\n      invalid\n    tag_29:\n      0x20\n      add\n      add\n        /* \"contracts/demo2.sol\":776:812  result[k--] = bytes1(uint8(48+i%10)) */\n      swap1\n      not(0xffffffffffffffffffffffffffffffffffffffffffffffffffffffffffffff)\n      and\n      swap1\n      dup2\n      0x00\n      byte\n      swap1\n      mstore8\n      pop\n        /* \"contracts/demo2.sol\":830:832  10 */\n      0x0a\n        /* \"contracts/demo2.sol\":827:832  i/=10 */\n      dup7\n      dup2\n      tag_30\n      jumpi\n      invalid\n    tag_30:\n      div\n      swap6\n      pop\n        /* \"contracts/demo2.sol\":738:844  while (i!=0) \r... */\n      jump(tag_26)\n    tag_27:\n        /* \"contracts/demo2.sol\":868:874  result */\n      dup2\n        /* \"contracts/demo2.sol\":854:875  return string(result) */\n      swap5\n      pop\n      pop\n      pop\n      pop\n      pop\n        /* \"contracts/demo2.sol\":394:884  function integerToString(uint i)private pure returns (string memory) {\r... */\n    tag_19:\n      swap2\n      swap1\n      pop\n      jump\t// out\n\n    auxdata: 0xa26469706673582212209aee4c75ab2f3f7ab6c991cf68f1a4b2d2c864b48280830bc756f3fd74a93adf64736f6c63430007060033\n}\n",
				"bytecode": {
					"linkReferences": {},
					"object": "608060405234801561001057600080fd5b506040516103063803806103068339818101604052602081101561003357600080fd5b810190808051906020019092919050505080600081905550506102ab8061005b6000396000f3fe608060405234801561001057600080fd5b50600436106100365760003560e01c806359c1c13f1461003b578063995e433914610069575b600080fd5b6100676004803603602081101561005157600080fd5b8101908080359060200190929190505050610110565b005b6100956004803603602081101561007f57600080fd5b810190808035906020019092919050505061011a565b6040518080602001828103825283818151815260200191508051906020019080838360005b838110156100d55780820151818401526020810190506100ba565b50505050905090810190601f1680156101025780820380516001836020036101000a031916815260200191505b509250505060405180910390f35b8060008190555050565b60606101296000548301610130565b9050919050565b60606000829050600083141561017e576040518060400160405280600181526020017f3000000000000000000000000000000000000000000000000000000000000000815250915050610270565b60005b600082146101a3578080600101915050600a828161019b57fe5b049150610181565b60008167ffffffffffffffff811180156101bc57600080fd5b506040519080825280601f01601f1916602001820160405280156101ef5781602001600182028036833780820191505090505b50905060006001830390505b6000861461026857600a868161020d57fe5b0660300160f81b8282806001900393508151811061022757fe5b60200101907effffffffffffffffffffffffffffffffffffffffffffffffffffffffffffff1916908160001a905350600a868161026057fe5b0495506101fb565b819450505050505b91905056fea26469706673582212209aee4c75ab2f3f7ab6c991cf68f1a4b2d2c864b48280830bc756f3fd74a93adf64736f6c63430007060033",
					"opcodes": "PUSH1 0x80 PUSH1 0x40 MSTORE CALLVALUE DUP1 ISZERO PUSH2 0x10 JUMPI PUSH1 0x0 DUP1 REVERT JUMPDEST POP PUSH1 0x40 MLOAD PUSH2 0x306 CODESIZE SUB DUP1 PUSH2 0x306 DUP4 CODECOPY DUP2 DUP2 ADD PUSH1 0x40 MSTORE PUSH1 0x20 DUP2 LT ISZERO PUSH2 0x33 JUMPI PUSH1 0x0 DUP1 REVERT JUMPDEST DUP2 ADD SWAP1 DUP1 DUP1 MLOAD SWAP1 PUSH1 0x20 ADD SWAP1 SWAP3 SWAP2 SWAP1 POP POP POP DUP1 PUSH1 0x0 DUP2 SWAP1 SSTORE POP POP PUSH2 0x2AB DUP1 PUSH2 0x5B PUSH1 0x0 CODECOPY PUSH1 0x0 RETURN INVALID PUSH1 0x80 PUSH1 0x40 MSTORE CALLVALUE DUP1 ISZERO PUSH2 0x10 JUMPI PUSH1 0x0 DUP1 REVERT JUMPDEST POP PUSH1 0x4 CALLDATASIZE LT PUSH2 0x36 JUMPI PUSH1 0x0 CALLDATALOAD PUSH1 0xE0 SHR DUP1 PUSH4 0x59C1C13F EQ PUSH2 0x3B JUMPI DUP1 PUSH4 0x995E4339 EQ PUSH2 0x69 JUMPI JUMPDEST PUSH1 0x0 DUP1 REVERT JUMPDEST PUSH2 0x67 PUSH1 0x4 DUP1 CALLDATASIZE SUB PUSH1 0x20 DUP2 LT ISZERO PUSH2 0x51 JUMPI PUSH1 0x0 DUP1 REVERT JUMPDEST DUP2 ADD SWAP1 DUP1 DUP1 CALLDATALOAD SWAP1 PUSH1 0x20 ADD SWAP1 SWAP3 SWAP2 SWAP1 POP POP POP PUSH2 0x110 JUMP JUMPDEST STOP JUMPDEST PUSH2 0x95 PUSH1 0x4 DUP1 CALLDATASIZE SUB PUSH1 0x20 DUP2 LT ISZERO PUSH2 0x7F JUMPI PUSH1 0x0 DUP1 REVERT JUMPDEST DUP2 ADD SWAP1 DUP1 DUP1 CALLDATALOAD SWAP1 PUSH1 0x20 ADD SWAP1 SWAP3 SWAP2 SWAP1 POP POP POP PUSH2 0x11A JUMP JUMPDEST PUSH1 0x40 MLOAD DUP1 DUP1 PUSH1 0x20 ADD DUP3 DUP2 SUB DUP3 MSTORE DUP4 DUP2 DUP2 MLOAD DUP2 MSTORE PUSH1 0x20 ADD SWAP2 POP DUP1 MLOAD SWAP1 PUSH1 0x20 ADD SWAP1 DUP1 DUP4 DUP4 PUSH1 0x0 JUMPDEST DUP4 DUP2 LT ISZERO PUSH2 0xD5 JUMPI DUP1 DUP3 ADD MLOAD DUP2 DUP5 ADD MSTORE PUSH1 0x20 DUP2 ADD SWAP1 POP PUSH2 0xBA JUMP JUMPDEST POP POP POP POP SWAP1 POP SWAP1 DUP2 ADD SWAP1 PUSH1 0x1F AND DUP1 ISZERO PUSH2 0x102 JUMPI DUP1 DUP3 SUB DUP1 MLOAD PUSH1 0x1 DUP4 PUSH1 0x20 SUB PUSH2 0x100 EXP SUB NOT AND DUP2 MSTORE PUSH1 0x20 ADD SWAP2 POP JUMPDEST POP SWAP3 POP POP POP PUSH1 0x40 MLOAD DUP1 SWAP2 SUB SWAP1 RETURN JUMPDEST DUP1 PUSH1 0x0 DUP2 SWAP1 SSTORE POP POP JUMP JUMPDEST PUSH1 0x60 PUSH2 0x129 PUSH1 0x0 SLOAD DUP4 ADD PUSH2 0x130 JUMP JUMPDEST SWAP1 POP SWAP2 SWAP1 POP JUMP JUMPDEST PUSH1 0x60 PUSH1 0x0 DUP3 SWAP1 POP PUSH1 0x0 DUP4 EQ ISZERO PUSH2 0x17E JUMPI PUSH1 0x40 MLOAD DUP1 PUSH1 0x40 ADD PUSH1 0x40 MSTORE DUP1 PUSH1 0x1 DUP2 MSTORE PUSH1 0x20 ADD PUSH32 0x3000000000000000000000000000000000000000000000000000000000000000 DUP2 MSTORE POP SWAP2 POP POP PUSH2 0x270 JUMP JUMPDEST PUSH1 0x0 JUMPDEST PUSH1 0x0 DUP3 EQ PUSH2 0x1A3 JUMPI DUP1 DUP1 PUSH1 0x1 ADD SWAP2 POP POP PUSH1 0xA DUP3 DUP2 PUSH2 0x19B JUMPI INVALID JUMPDEST DIV SWAP2 POP PUSH2 0x181 JUMP JUMPDEST PUSH1 0x0 DUP2 PUSH8 0xFFFFFFFFFFFFFFFF DUP2 GT DUP1 ISZERO PUSH2 0x1BC JUMPI PUSH1 0x0 DUP1 REVERT JUMPDEST POP PUSH1 0x40 MLOAD SWAP1 DUP1 DUP3 MSTORE DUP1 PUSH1 0x1F ADD PUSH1 0x1F NOT AND PUSH1 0x20 ADD DUP3 ADD PUSH1 0x40 MSTORE DUP1 ISZERO PUSH2 0x1EF JUMPI DUP2 PUSH1 0x20 ADD PUSH1 0x1 DUP3 MUL DUP1 CALLDATASIZE DUP4 CALLDATACOPY DUP1 DUP3 ADD SWAP2 POP POP SWAP1 POP JUMPDEST POP SWAP1 POP PUSH1 0x0 PUSH1 0x1 DUP4 SUB SWAP1 POP JUMPDEST PUSH1 0x0 DUP7 EQ PUSH2 0x268 JUMPI PUSH1 0xA DUP7 DUP2 PUSH2 0x20D JUMPI INVALID JUMPDEST MOD PUSH1 0x30 ADD PUSH1 0xF8 SHL DUP3 DUP3 DUP1 PUSH1 0x1 SWAP1 SUB SWAP4 POP DUP2 MLOAD DUP2 LT PUSH2 0x227 JUMPI INVALID JUMPDEST PUSH1 0x20 ADD ADD SWAP1 PUSH31 0xFFFFFFFFFFFFFFFFFFFFFFFFFFFFFFFFFFFFFFFFFFFFFFFFFFFFFFFFFFFFFF NOT AND SWAP1 DUP2 PUSH1 0x0 BYTE SWAP1 MSTORE8 POP PUSH1 0xA DUP7 DUP2 PUSH2 0x260 JUMPI INVALID JUMPDEST DIV SWAP6 POP PUSH2 0x1FB JUMP JUMPDEST DUP2 SWAP5 POP POP POP POP POP JUMPDEST SWAP2 SWAP1 POP JUMP INVALID LOG2 PUSH5 0x6970667358 0x22 SLT KECCAK256 SWAP11 0xEE 0x4C PUSH22 0xAB2F3F7AB6C991CF68F1A4B2D2C864B48280830BC756 RETURN REVERT PUSH21 0xA93ADF64736F6C6343000706003300000000000000 "
				},
				"gasEstimates": {
					"creation": {
						"codeDepositCost": "136600",
						"executionCost": "infinite",
						"totalCost": "infinite"
					},
					"external": {
						"getResult(uint256)": "infinite",
						"setNewOffset(uint256)": "20220"
					},
					"internal": {
						"integerToString(uint256)": "infinite"
					}
				},
				"methodIdentifiers": {
					"getResult(uint256)": "995e4339",
					"setNewOffset(uint256)": "59c1c13f"
				}
			},
			"storageLayout": {
				"storage": [
					{
						"astId": 3,
						"contract": "contracts/demo2.sol:demo2",
						"label": "offset",
						"offset": 0,
						"slot": "0",
						"type": "t_uint256"
					}
				],
				"types": {
					"t_uint256": {
						"encoding": "inplace",
						"label": "uint256",
						"numberOfBytes": "32"
					}
				}
			},
			"userdoc": {
				"kind": "user",
				"methods": {},
				"version": 1
			}
		}
	}
}