{
	"contracts/demo3.sol": {
		"demo3": {
			"abi": [
				{
					"inputs": [
						{
							"internalType": "uint256",
							"name": "index",
							"type": "uint256"
						}
					],
					"name": "findByIndex",
					"outputs": [
						{
							"internalType": "uint256",
							"name": "",
							"type": "uint256"
						}
					],
					"stateMutability": "nonpayable",
					"type": "function"
				},
				{
					"inputs": [
						{
							"internalType": "uint256",
							"name": "len",
							"type": "uint256"
						}
					],
					"name": "getArraySize",
					"outputs": [
						{
							"internalType": "uint256",
							"name": "",
							"type": "uint256"
						}
					],
					"stateMutability": "pure",
					"type": "function"
				},
				{
					"inputs": [
						{
							"internalType": "uint256",
							"name": "index",
							"type": "uint256"
						}
					],
					"name": "getByIndex",
					"outputs": [
						{
							"internalType": "uint256",
							"name": "",
							"type": "uint256"
						}
					],
					"stateMutability": "pure",
					"type": "function"
				},
				{
					"inputs": [
						{
							"internalType": "uint256",
							"name": "len",
							"type": "uint256"
						}
					],
					"name": "getBytesSize",
					"outputs": [
						{
							"internalType": "uint256",
							"name": "",
							"type": "uint256"
						}
					],
					"stateMutability": "pure",
					"type": "function"
				},
				{
					"inputs": [],
					"name": "getMembers",
					"outputs": [
						{
							"internalType": "uint256[]",
							"name": "",
							"type": "uint256[]"
						}
					],
					"stateMutability": "view",
					"type": "function"
				},
				{
					"inputs": [],
					"name": "initArray",
					"outputs": [],
					"stateMutability": "nonpayable",
					"type": "function"
				},
				{
					"inputs": [
						{
							"internalType": "uint256",
							"name": "newMember",
							"type": "uint256"
						}
					],
					"name": "pushMember",
					"outputs": [
						{
							"internalType": "uint256[]",
							"name": "",
							"type": "uint256[]"
						}
					],
					"stateMutability": "nonpayable",
					"type": "function"
				}
			],
			"devdoc": {
				"kind": "dev",
				"methods": {},
				"version": 1
			},
			"evm": {
				"assembly": "    /* \"contracts/demo3.sol\":64:1129  contract demo3 {\r... */\n  mstore(0x40, 0x80)\n    /* \"contracts/demo3.sol\":624:625  5 */\n  0x05\n    /* \"contracts/demo3.sol\":613:626  new uint[](5) */\n  0xffffffffffffffff\n  dup2\n  gt\n  dup1\n  iszero\n  tag_1\n  jumpi\n  0x00\n  dup1\n  revert\ntag_1:\n  pop\n  mload(0x40)\n  swap1\n  dup1\n  dup3\n  mstore\n  dup1\n  0x20\n  mul\n  0x20\n  add\n  dup3\n  add\n  0x40\n  mstore\n  dup1\n  iszero\n  tag_2\n  jumpi\n  dup2\n  0x20\n  add\n  0x20\n  dup3\n  mul\n  dup1\n  calldatasize\n  dup4\n  calldatacopy\n  dup1\n  dup3\n  add\n  swap2\n  pop\n  pop\n  swap1\n  pop\ntag_2:\n  pop\n    /* \"contracts/demo3.sol\":596:626  uint[] members = new uint[](5) */\n  0x00\n  swap1\n  dup1\n  mload\n  swap1\n  0x20\n  add\n  swap1\n  tag_3\n  swap3\n  swap2\n  swap1\n  tag_4\n  jump\t// in\ntag_3:\n  pop\n    /* \"contracts/demo3.sol\":64:1129  contract demo3 {\r... */\n  callvalue\n  dup1\n  iszero\n  tag_5\n  jumpi\n  0x00\n  dup1\n  revert\ntag_5:\n  pop\n  jump(tag_6)\ntag_4:\n  dup3\n  dup1\n  sload\n  dup3\n  dup3\n  sstore\n  swap1\n  0x00\n  mstore\n  keccak256(0x00, 0x20)\n  swap1\n  dup2\n  add\n  swap3\n  dup3\n  iszero\n  tag_7\n  jumpi\n  swap2\n  0x20\n  mul\n  dup3\n  add\ntag_8:\n  dup3\n  dup2\n  gt\n  iszero\n  tag_9\n  jumpi\n  dup3\n  mload\n  dup3\n  sstore\n  swap2\n  0x20\n  add\n  swap2\n  swap1\n  0x01\n  add\n  swap1\n  jump(tag_8)\ntag_9:\ntag_7:\n  pop\n  swap1\n  pop\n  tag_10\n  swap2\n  swap1\n  tag_11\n  jump\t// in\ntag_10:\n  pop\n  swap1\n  jump\t// out\ntag_11:\ntag_12:\n  dup1\n  dup3\n  gt\n  iszero\n  tag_13\n  jumpi\n  0x00\n  dup2\n  0x00\n  swap1\n  sstore\n  pop\n  0x01\n  add\n  jump(tag_12)\ntag_13:\n  pop\n  swap1\n  jump\t// out\ntag_6:\n  dataSize(sub_0)\n  dup1\n  dataOffset(sub_0)\n  0x00\n  codecopy\n  0x00\n  return\nstop\n\nsub_0: assembly {\n        /* \"contracts/demo3.sol\":64:1129  contract demo3 {\r... */\n      mstore(0x40, 0x80)\n      callvalue\n      dup1\n      iszero\n      tag_1\n      jumpi\n      0x00\n      dup1\n      revert\n    tag_1:\n      pop\n      jumpi(tag_2, lt(calldatasize, 0x04))\n      shr(0xe0, calldataload(0x00))\n      dup1\n      0x9eab5253\n      gt\n      tag_10\n      jumpi\n      dup1\n      0x9eab5253\n      eq\n      tag_6\n      jumpi\n      dup1\n      0xa46ed0ca\n      eq\n      tag_7\n      jumpi\n      dup1\n      0xa7f2eea1\n      eq\n      tag_8\n      jumpi\n      dup1\n      0xa8a6cffd\n      eq\n      tag_9\n      jumpi\n      jump(tag_2)\n    tag_10:\n      dup1\n      0x2d883a73\n      eq\n      tag_3\n      jumpi\n      dup1\n      0x5b49e4b8\n      eq\n      tag_4\n      jumpi\n      dup1\n      0x82a8181b\n      eq\n      tag_5\n      jumpi\n    tag_2:\n      0x00\n      dup1\n      revert\n        /* \"contracts/demo3.sol\":371:590  function getByIndex(uint index) pure public returns (uint){\r... */\n    tag_3:\n      tag_11\n      0x04\n      dup1\n      calldatasize\n      sub\n      0x20\n      dup2\n      lt\n      iszero\n      tag_12\n      jumpi\n      0x00\n      dup1\n      revert\n    tag_12:\n      dup2\n      add\n      swap1\n      dup1\n      dup1\n      calldataload\n      swap1\n      0x20\n      add\n      swap1\n      swap3\n      swap2\n      swap1\n      pop\n      pop\n      pop\n      tag_13\n      jump\t// in\n    tag_11:\n      mload(0x40)\n      dup1\n      dup3\n      dup2\n      mstore\n      0x20\n      add\n      swap2\n      pop\n      pop\n      mload(0x40)\n      dup1\n      swap2\n      sub\n      swap1\n      return\n        /* \"contracts/demo3.sol\":86:225  function getArraySize(uint len) pure public returns (uint){\r... */\n    tag_4:\n      tag_14\n      0x04\n      dup1\n      calldatasize\n      sub\n      0x20\n      dup2\n      lt\n      iszero\n      tag_15\n      jumpi\n      0x00\n      dup1\n      revert\n    tag_15:\n      dup2\n      add\n      swap1\n      dup1\n      dup1\n      calldataload\n      swap1\n      0x20\n      add\n      swap1\n      swap3\n      swap2\n      swap1\n      pop\n      pop\n      pop\n      tag_16\n      jump\t// in\n    tag_14:\n      mload(0x40)\n      dup1\n      dup3\n      dup2\n      mstore\n      0x20\n      add\n      swap2\n      pop\n      pop\n      mload(0x40)\n      dup1\n      swap2\n      sub\n      swap1\n      return\n        /* \"contracts/demo3.sol\":633:784  function initArray() public {\r... */\n    tag_5:\n      tag_17\n      tag_18\n      jump\t// in\n    tag_17:\n      stop\n        /* \"contracts/demo3.sol\":1037:1126  function getMembers()public view returns(uint[] memory) {\r... */\n    tag_6:\n      tag_19\n      tag_20\n      jump\t// in\n    tag_19:\n      mload(0x40)\n      dup1\n      dup1\n      0x20\n      add\n      dup3\n      dup2\n      sub\n      dup3\n      mstore\n      dup4\n      dup2\n      dup2\n      mload\n      dup2\n      mstore\n      0x20\n      add\n      swap2\n      pop\n      dup1\n      mload\n      swap1\n      0x20\n      add\n      swap1\n      0x20\n      mul\n      dup1\n      dup4\n      dup4\n      0x00\n    tag_21:\n      dup4\n      dup2\n      lt\n      iszero\n      tag_23\n      jumpi\n      dup1\n      dup3\n      add\n      mload\n      dup2\n      dup5\n      add\n      mstore\n      0x20\n      dup2\n      add\n      swap1\n      pop\n      jump(tag_21)\n    tag_23:\n      pop\n      pop\n      pop\n      pop\n      swap1\n      pop\n      add\n      swap3\n      pop\n      pop\n      pop\n      mload(0x40)\n      dup1\n      swap2\n      sub\n      swap1\n      return\n        /* \"contracts/demo3.sol\":893:1031  function pushMember(uint newMember) public returns (uint[] memory){\r... */\n    tag_7:\n      tag_24\n      0x04\n      dup1\n      calldatasize\n      sub\n      0x20\n      dup2\n      lt\n      iszero\n      tag_25\n      jumpi\n      0x00\n      dup1\n      revert\n    tag_25:\n      dup2\n      add\n      swap1\n      dup1\n      dup1\n      calldataload\n      swap1\n      0x20\n      add\n      swap1\n      swap3\n      swap2\n      swap1\n      pop\n      pop\n      pop\n      tag_26\n      jump\t// in\n    tag_24:\n      mload(0x40)\n      dup1\n      dup1\n      0x20\n      add\n      dup3\n      dup2\n      sub\n      dup3\n      mstore\n      dup4\n      dup2\n      dup2\n      mload\n      dup2\n      mstore\n      0x20\n      add\n      swap2\n      pop\n      dup1\n      mload\n      swap1\n      0x20\n      add\n      swap1\n      0x20\n      mul\n      dup1\n      dup4\n      dup4\n      0x00\n    tag_27:\n      dup4\n      dup2\n      lt\n      iszero\n      tag_29\n      jumpi\n      dup1\n      dup3\n      add\n      mload\n      dup2\n      dup5\n      add\n      mstore\n      0x20\n      dup2\n      add\n      swap1\n      pop\n      jump(tag_27)\n    tag_29:\n      pop\n      pop\n      pop\n      pop\n      swap1\n      pop\n      add\n      swap3\n      pop\n      pop\n      pop\n      mload(0x40)\n      dup1\n      swap2\n      sub\n      swap1\n      return\n        /* \"contracts/demo3.sol\":231:365  function getBytesSize(uint len) pure public returns (uint){\r... */\n    tag_8:\n      tag_30\n      0x04\n      dup1\n      calldatasize\n      sub\n      0x20\n      dup2\n      lt\n      iszero\n      tag_31\n      jumpi\n      0x00\n      dup1\n      revert\n    tag_31:\n      dup2\n      add\n      swap1\n      dup1\n      dup1\n      calldataload\n      swap1\n      0x20\n      add\n      swap1\n      swap3\n      swap2\n      swap1\n      pop\n      pop\n      pop\n      tag_32\n      jump\t// in\n    tag_30:\n      mload(0x40)\n      dup1\n      dup3\n      dup2\n      mstore\n      0x20\n      add\n      swap2\n      pop\n      pop\n      mload(0x40)\n      dup1\n      swap2\n      sub\n      swap1\n      return\n        /* \"contracts/demo3.sol\":790:887  function findByIndex(uint index) public returns (uint) {\r... */\n    tag_9:\n      tag_33\n      0x04\n      dup1\n      calldatasize\n      sub\n      0x20\n      dup2\n      lt\n      iszero\n      tag_34\n      jumpi\n      0x00\n      dup1\n      revert\n    tag_34:\n      dup2\n      add\n      swap1\n      dup1\n      dup1\n      calldataload\n      swap1\n      0x20\n      add\n      swap1\n      swap3\n      swap2\n      swap1\n      pop\n      pop\n      pop\n      tag_35\n      jump\t// in\n    tag_33:\n      mload(0x40)\n      dup1\n      dup3\n      dup2\n      mstore\n      0x20\n      add\n      swap2\n      pop\n      pop\n      mload(0x40)\n      dup1\n      swap2\n      sub\n      swap1\n      return\n        /* \"contracts/demo3.sol\":371:590  function getByIndex(uint index) pure public returns (uint){\r... */\n    tag_13:\n        /* \"contracts/demo3.sol\":424:428  uint */\n      0x00\n        /* \"contracts/demo3.sol\":440:455  uint[] memory a */\n      dup1\n        /* \"contracts/demo3.sol\":469:470  5 */\n      0x05\n        /* \"contracts/demo3.sol\":458:471  new uint[](5) */\n      0xffffffffffffffff\n      dup2\n      gt\n      dup1\n      iszero\n      tag_37\n      jumpi\n      0x00\n      dup1\n      revert\n    tag_37:\n      pop\n      mload(0x40)\n      swap1\n      dup1\n      dup3\n      mstore\n      dup1\n      0x20\n      mul\n      0x20\n      add\n      dup3\n      add\n      0x40\n      mstore\n      dup1\n      iszero\n      tag_38\n      jumpi\n      dup2\n      0x20\n      add\n      0x20\n      dup3\n      mul\n      dup1\n      calldatasize\n      dup4\n      calldatacopy\n      dup1\n      dup3\n      add\n      swap2\n      pop\n      pop\n      swap1\n      pop\n    tag_38:\n      pop\n        /* \"contracts/demo3.sol\":440:471  uint[] memory a = new uint[](5) */\n      swap1\n      pop\n        /* \"contracts/demo3.sol\":487:488  1 */\n      0x01\n        /* \"contracts/demo3.sol\":482:483  a */\n      dup2\n        /* \"contracts/demo3.sol\":484:485  0 */\n      0x00\n        /* \"contracts/demo3.sol\":482:486  a[0] */\n      dup2\n      mload\n      dup2\n      lt\n      tag_39\n      jumpi\n      invalid\n    tag_39:\n      0x20\n      mul\n      0x20\n      add\n      add\n        /* \"contracts/demo3.sol\":482:488  a[0]=1 */\n      dup2\n      dup2\n      mstore\n      pop\n      pop\n        /* \"contracts/demo3.sol\":504:505  2 */\n      0x02\n        /* \"contracts/demo3.sol\":499:500  a */\n      dup2\n        /* \"contracts/demo3.sol\":501:502  1 */\n      0x01\n        /* \"contracts/demo3.sol\":499:503  a[1] */\n      dup2\n      mload\n      dup2\n      lt\n      tag_40\n      jumpi\n      invalid\n    tag_40:\n      0x20\n      mul\n      0x20\n      add\n      add\n        /* \"contracts/demo3.sol\":499:505  a[1]=2 */\n      dup2\n      dup2\n      mstore\n      pop\n      pop\n        /* \"contracts/demo3.sol\":521:522  3 */\n      0x03\n        /* \"contracts/demo3.sol\":516:517  a */\n      dup2\n        /* \"contracts/demo3.sol\":518:519  2 */\n      0x02\n        /* \"contracts/demo3.sol\":516:520  a[2] */\n      dup2\n      mload\n      dup2\n      lt\n      tag_41\n      jumpi\n      invalid\n    tag_41:\n      0x20\n      mul\n      0x20\n      add\n      add\n        /* \"contracts/demo3.sol\":516:522  a[2]=3 */\n      dup2\n      dup2\n      mstore\n      pop\n      pop\n        /* \"contracts/demo3.sol\":538:539  4 */\n      0x04\n        /* \"contracts/demo3.sol\":533:534  a */\n      dup2\n        /* \"contracts/demo3.sol\":535:536  3 */\n      0x03\n        /* \"contracts/demo3.sol\":533:537  a[3] */\n      dup2\n      mload\n      dup2\n      lt\n      tag_42\n      jumpi\n      invalid\n    tag_42:\n      0x20\n      mul\n      0x20\n      add\n      add\n        /* \"contracts/demo3.sol\":533:539  a[3]=4 */\n      dup2\n      dup2\n      mstore\n      pop\n      pop\n        /* \"contracts/demo3.sol\":555:556  5 */\n      0x05\n        /* \"contracts/demo3.sol\":550:551  a */\n      dup2\n        /* \"contracts/demo3.sol\":552:553  4 */\n      0x04\n        /* \"contracts/demo3.sol\":550:554  a[4] */\n      dup2\n      mload\n      dup2\n      lt\n      tag_43\n      jumpi\n      invalid\n    tag_43:\n      0x20\n      mul\n      0x20\n      add\n      add\n        /* \"contracts/demo3.sol\":550:556  a[4]=5 */\n      dup2\n      dup2\n      mstore\n      pop\n      pop\n        /* \"contracts/demo3.sol\":574:575  a */\n      dup1\n        /* \"contracts/demo3.sol\":576:581  index */\n      dup4\n        /* \"contracts/demo3.sol\":574:582  a[index] */\n      dup2\n      mload\n      dup2\n      lt\n      tag_44\n      jumpi\n      invalid\n    tag_44:\n      0x20\n      mul\n      0x20\n      add\n      add\n      mload\n        /* \"contracts/demo3.sol\":567:582  return a[index] */\n      swap2\n      pop\n      pop\n        /* \"contracts/demo3.sol\":371:590  function getByIndex(uint index) pure public returns (uint){\r... */\n      swap2\n      swap1\n      pop\n      jump\t// out\n        /* \"contracts/demo3.sol\":86:225  function getArraySize(uint len) pure public returns (uint){\r... */\n    tag_16:\n        /* \"contracts/demo3.sol\":139:143  uint */\n      0x00\n        /* \"contracts/demo3.sol\":155:170  uint[] memory a */\n      dup1\n        /* \"contracts/demo3.sol\":187:190  len */\n      dup3\n        /* \"contracts/demo3.sol\":173:191  new uint256[](len) */\n      0xffffffffffffffff\n      dup2\n      gt\n      dup1\n      iszero\n      tag_46\n      jumpi\n      0x00\n      dup1\n      revert\n    tag_46:\n      pop\n      mload(0x40)\n      swap1\n      dup1\n      dup3\n      mstore\n      dup1\n      0x20\n      mul\n      0x20\n      add\n      dup3\n      add\n      0x40\n      mstore\n      dup1\n      iszero\n      tag_47\n      jumpi\n      dup2\n      0x20\n      add\n      0x20\n      dup3\n      mul\n      dup1\n      calldatasize\n      dup4\n      calldatacopy\n      dup1\n      dup3\n      add\n      swap2\n      pop\n      pop\n      swap1\n      pop\n    tag_47:\n      pop\n        /* \"contracts/demo3.sol\":155:191  uint[] memory a = new uint256[](len) */\n      swap1\n      pop\n        /* \"contracts/demo3.sol\":209:210  a */\n      dup1\n        /* \"contracts/demo3.sol\":209:217  a.length */\n      mload\n        /* \"contracts/demo3.sol\":202:217  return a.length */\n      swap2\n      pop\n      pop\n        /* \"contracts/demo3.sol\":86:225  function getArraySize(uint len) pure public returns (uint){\r... */\n      swap2\n      swap1\n      pop\n      jump\t// out\n        /* \"contracts/demo3.sol\":633:784  function initArray() public {\r... */\n    tag_18:\n        /* \"contracts/demo3.sol\":683:684  9 */\n      0x09\n        /* \"contracts/demo3.sol\":672:679  members */\n      0x00\n        /* \"contracts/demo3.sol\":680:681  0 */\n      dup1\n        /* \"contracts/demo3.sol\":672:682  members[0] */\n      dup2\n      sload\n      dup2\n      lt\n      tag_49\n      jumpi\n      invalid\n    tag_49:\n      swap1\n      0x00\n      mstore\n      keccak256(0x00, 0x20)\n      add\n        /* \"contracts/demo3.sol\":672:684  members[0]=9 */\n      dup2\n      swap1\n      sstore\n      pop\n        /* \"contracts/demo3.sol\":706:707  8 */\n      0x08\n        /* \"contracts/demo3.sol\":695:702  members */\n      0x00\n        /* \"contracts/demo3.sol\":703:704  1 */\n      0x01\n        /* \"contracts/demo3.sol\":695:705  members[1] */\n      dup2\n      sload\n      dup2\n      lt\n      tag_51\n      jumpi\n      invalid\n    tag_51:\n      swap1\n      0x00\n      mstore\n      keccak256(0x00, 0x20)\n      add\n        /* \"contracts/demo3.sol\":695:707  members[1]=8 */\n      dup2\n      swap1\n      sstore\n      pop\n        /* \"contracts/demo3.sol\":729:730  7 */\n      0x07\n        /* \"contracts/demo3.sol\":718:725  members */\n      0x00\n        /* \"contracts/demo3.sol\":726:727  2 */\n      0x02\n        /* \"contracts/demo3.sol\":718:728  members[2] */\n      dup2\n      sload\n      dup2\n      lt\n      tag_53\n      jumpi\n      invalid\n    tag_53:\n      swap1\n      0x00\n      mstore\n      keccak256(0x00, 0x20)\n      add\n        /* \"contracts/demo3.sol\":718:730  members[2]=7 */\n      dup2\n      swap1\n      sstore\n      pop\n        /* \"contracts/demo3.sol\":752:753  6 */\n      0x06\n        /* \"contracts/demo3.sol\":741:748  members */\n      0x00\n        /* \"contracts/demo3.sol\":749:750  3 */\n      0x03\n        /* \"contracts/demo3.sol\":741:751  members[3] */\n      dup2\n      sload\n      dup2\n      lt\n      tag_55\n      jumpi\n      invalid\n    tag_55:\n      swap1\n      0x00\n      mstore\n      keccak256(0x00, 0x20)\n      add\n        /* \"contracts/demo3.sol\":741:753  members[3]=6 */\n      dup2\n      swap1\n      sstore\n      pop\n        /* \"contracts/demo3.sol\":775:776  5 */\n      0x05\n        /* \"contracts/demo3.sol\":764:771  members */\n      0x00\n        /* \"contracts/demo3.sol\":772:773  4 */\n      0x04\n        /* \"contracts/demo3.sol\":764:774  members[4] */\n      dup2\n      sload\n      dup2\n      lt\n      tag_57\n      jumpi\n      invalid\n    tag_57:\n      swap1\n      0x00\n      mstore\n      keccak256(0x00, 0x20)\n      add\n        /* \"contracts/demo3.sol\":764:776  members[4]=5 */\n      dup2\n      swap1\n      sstore\n      pop\n        /* \"contracts/demo3.sol\":633:784  function initArray() public {\r... */\n      jump\t// out\n        /* \"contracts/demo3.sol\":1037:1126  function getMembers()public view returns(uint[] memory) {\r... */\n    tag_20:\n        /* \"contracts/demo3.sol\":1078:1091  uint[] memory */\n      0x60\n        /* \"contracts/demo3.sol\":1111:1118  members */\n      0x00\n        /* \"contracts/demo3.sol\":1104:1118  return members */\n      dup1\n      sload\n      dup1\n      0x20\n      mul\n      0x20\n      add\n      mload(0x40)\n      swap1\n      dup2\n      add\n      0x40\n      mstore\n      dup1\n      swap3\n      swap2\n      swap1\n      dup2\n      dup2\n      mstore\n      0x20\n      add\n      dup3\n      dup1\n      sload\n      dup1\n      iszero\n      tag_60\n      jumpi\n      0x20\n      mul\n      dup3\n      add\n      swap2\n      swap1\n      0x00\n      mstore\n      keccak256(0x00, 0x20)\n      swap1\n    tag_61:\n      dup2\n      sload\n      dup2\n      mstore\n      0x20\n      add\n      swap1\n      0x01\n      add\n      swap1\n      dup1\n      dup4\n      gt\n      tag_61\n      jumpi\n    tag_60:\n      pop\n      pop\n      pop\n      pop\n      pop\n      swap1\n      pop\n        /* \"contracts/demo3.sol\":1037:1126  function getMembers()public view returns(uint[] memory) {\r... */\n      swap1\n      jump\t// out\n        /* \"contracts/demo3.sol\":893:1031  function pushMember(uint newMember) public returns (uint[] memory){\r... */\n    tag_26:\n        /* \"contracts/demo3.sol\":945:958  uint[] memory */\n      0x60\n        /* \"contracts/demo3.sol\":970:977  members */\n      0x00\n        /* \"contracts/demo3.sol\":983:992  newMember */\n      dup3\n        /* \"contracts/demo3.sol\":970:993  members.push(newMember) */\n      swap1\n      dup1\n      0x01\n      dup2\n      sload\n      add\n      dup1\n      dup3\n      sstore\n      dup1\n      swap2\n      pop\n      pop\n      0x01\n      swap1\n      sub\n      swap1\n      0x00\n      mstore\n      keccak256(0x00, 0x20)\n      add\n      0x00\n      swap1\n      swap2\n      swap1\n      swap2\n      swap1\n      swap2\n      pop\n      sstore\n        /* \"contracts/demo3.sol\":1011:1023  getMembers() */\n      tag_64\n        /* \"contracts/demo3.sol\":1011:1021  getMembers */\n      tag_20\n        /* \"contracts/demo3.sol\":1011:1023  getMembers() */\n      jump\t// in\n    tag_64:\n        /* \"contracts/demo3.sol\":1004:1023  return getMembers() */\n      swap1\n      pop\n        /* \"contracts/demo3.sol\":893:1031  function pushMember(uint newMember) public returns (uint[] memory){\r... */\n      swap2\n      swap1\n      pop\n      jump\t// out\n        /* \"contracts/demo3.sol\":231:365  function getBytesSize(uint len) pure public returns (uint){\r... */\n    tag_32:\n        /* \"contracts/demo3.sol\":284:288  uint */\n      0x00\n        /* \"contracts/demo3.sol\":300:314  bytes memory b */\n      dup1\n        /* \"contracts/demo3.sol\":327:330  len */\n      dup3\n        /* \"contracts/demo3.sol\":317:331  new bytes(len) */\n      0xffffffffffffffff\n      dup2\n      gt\n      dup1\n      iszero\n      tag_66\n      jumpi\n      0x00\n      dup1\n      revert\n    tag_66:\n      pop\n      mload(0x40)\n      swap1\n      dup1\n      dup3\n      mstore\n      dup1\n      0x1f\n      add\n      not(0x1f)\n      and\n      0x20\n      add\n      dup3\n      add\n      0x40\n      mstore\n      dup1\n      iszero\n      tag_67\n      jumpi\n      dup2\n      0x20\n      add\n      0x01\n      dup3\n      mul\n      dup1\n      calldatasize\n      dup4\n      calldatacopy\n      dup1\n      dup3\n      add\n      swap2\n      pop\n      pop\n      swap1\n      pop\n    tag_67:\n      pop\n        /* \"contracts/demo3.sol\":300:331  bytes memory b = new bytes(len) */\n      swap1\n      pop\n        /* \"contracts/demo3.sol\":349:350  b */\n      dup1\n        /* \"contracts/demo3.sol\":349:357  b.length */\n      mload\n        /* \"contracts/demo3.sol\":342:357  return b.length */\n      swap2\n      pop\n      pop\n        /* \"contracts/demo3.sol\":231:365  function getBytesSize(uint len) pure public returns (uint){\r... */\n      swap2\n      swap1\n      pop\n      jump\t// out\n        /* \"contracts/demo3.sol\":790:887  function findByIndex(uint index) public returns (uint) {\r... */\n    tag_35:\n        /* \"contracts/demo3.sol\":839:843  uint */\n      0x00\n        /* \"contracts/demo3.sol\":863:870  members */\n      dup1\n        /* \"contracts/demo3.sol\":871:876  index */\n      dup3\n        /* \"contracts/demo3.sol\":863:877  members[index] */\n      dup2\n      sload\n      dup2\n      lt\n      tag_69\n      jumpi\n      invalid\n    tag_69:\n      swap1\n      0x00\n      mstore\n      keccak256(0x00, 0x20)\n      add\n      0x00\n        /* \"contracts/demo3.sol\":863:879  members[index]-- */\n      dup2\n      sload\n      dup1\n      swap3\n      swap2\n      swap1\n      0x01\n      swap1\n      sub\n      swap2\n      swap1\n      pop\n      sstore\n        /* \"contracts/demo3.sol\":856:879  return members[index]-- */\n      swap1\n      pop\n        /* \"contracts/demo3.sol\":790:887  function findByIndex(uint index) public returns (uint) {\r... */\n      swap2\n      swap1\n      pop\n      jump\t// out\n\n    auxdata: 0xa2646970667358221220213eeceb0cebeecba51203a6b3c9bc1576eabbbdee3a5593c0ea8a9bb777b34b64736f6c63430007060033\n}\n",
				"bytecode": {
					"linkReferences": {},
					"object": "6080604052600567ffffffffffffffff8111801561001c57600080fd5b5060405190808252806020026020018201604052801561004b5781602001602082028036833780820191505090505b5060009080519060200190610061929190610074565b5034801561006e57600080fd5b506100de565b8280548282559060005260206000209081019282156100b0579160200282015b828111156100af578251825591602001919060010190610094565b5b5090506100bd91906100c1565b5090565b5b808211156100da5760008160009055506001016100c2565b5090565b6105a4806100ed6000396000f3fe608060405234801561001057600080fd5b506004361061007d5760003560e01c80639eab52531161005b5780639eab525314610110578063a46ed0ca1461016f578063a7f2eea1146101f2578063a8a6cffd146102345761007d565b80632d883a73146100825780635b49e4b8146100c457806382a8181b14610106575b600080fd5b6100ae6004803603602081101561009857600080fd5b8101908080359060200190929190505050610276565b6040518082815260200191505060405180910390f35b6100f0600480360360208110156100da57600080fd5b8101908080359060200190929190505050610366565b6040518082815260200191505060405180910390f35b61010e6103bc565b005b610118610453565b6040518080602001828103825283818151815260200191508051906020019060200280838360005b8381101561015b578082015181840152602081019050610140565b505050509050019250505060405180910390f35b61019b6004803603602081101561018557600080fd5b81019080803590602001909291905050506104ab565b6040518080602001828103825283818151815260200191508051906020019060200280838360005b838110156101de5780820151818401526020810190506101c3565b505050509050019250505060405180910390f35b61021e6004803603602081101561020857600080fd5b81019080803590602001909291905050506104e5565b6040518082815260200191505060405180910390f35b6102606004803603602081101561024a57600080fd5b810190808035906020019092919050505061053f565b6040518082815260200191505060405180910390f35b600080600567ffffffffffffffff8111801561029157600080fd5b506040519080825280602002602001820160405280156102c05781602001602082028036833780820191505090505b5090506001816000815181106102d257fe5b6020026020010181815250506002816001815181106102ed57fe5b60200260200101818152505060038160028151811061030857fe5b60200260200101818152505060048160038151811061032357fe5b60200260200101818152505060058160048151811061033e57fe5b60200260200101818152505080838151811061035657fe5b6020026020010151915050919050565b6000808267ffffffffffffffff8111801561038057600080fd5b506040519080825280602002602001820160405280156103af5781602001602082028036833780820191505090505b5090508051915050919050565b6009600080815481106103cb57fe5b9060005260206000200181905550600860006001815481106103e957fe5b90600052602060002001819055506007600060028154811061040757fe5b90600052602060002001819055506006600060038154811061042557fe5b90600052602060002001819055506005600060048154811061044357fe5b9060005260206000200181905550565b606060008054806020026020016040519081016040528092919081815260200182805480156104a157602002820191906000526020600020905b81548152602001906001019080831161048d575b5050505050905090565b606060008290806001815401808255809150506001900390600052602060002001600090919091909150556104de610453565b9050919050565b6000808267ffffffffffffffff811180156104ff57600080fd5b506040519080825280601f01601f1916602001820160405280156105325781602001600182028036833780820191505090505b5090508051915050919050565b600080828154811061054d57fe5b9060005260206000200160008154809291906001900391905055905091905056fea2646970667358221220213eeceb0cebeecba51203a6b3c9bc1576eabbbdee3a5593c0ea8a9bb777b34b64736f6c63430007060033",
					"opcodes": "PUSH1 0x80 PUSH1 0x40 MSTORE PUSH1 0x5 PUSH8 0xFFFFFFFFFFFFFFFF DUP2 GT DUP1 ISZERO PUSH2 0x1C JUMPI PUSH1 0x0 DUP1 REVERT JUMPDEST POP PUSH1 0x40 MLOAD SWAP1 DUP1 DUP3 MSTORE DUP1 PUSH1 0x20 MUL PUSH1 0x20 ADD DUP3 ADD PUSH1 0x40 MSTORE DUP1 ISZERO PUSH2 0x4B JUMPI DUP2 PUSH1 0x20 ADD PUSH1 0x20 DUP3 MUL DUP1 CALLDATASIZE DUP4 CALLDATACOPY DUP1 DUP3 ADD SWAP2 POP POP SWAP1 POP JUMPDEST POP PUSH1 0x0 SWAP1 DUP1 MLOAD SWAP1 PUSH1 0x20 ADD SWAP1 PUSH2 0x61 SWAP3 SWAP2 SWAP1 PUSH2 0x74 JUMP JUMPDEST POP CALLVALUE DUP1 ISZERO PUSH2 0x6E JUMPI PUSH1 0x0 DUP1 REVERT JUMPDEST POP PUSH2 0xDE JUMP JUMPDEST DUP3 DUP1 SLOAD DUP3 DUP3 SSTORE SWAP1 PUSH1 0x0 MSTORE PUSH1 0x20 PUSH1 0x0 KECCAK256 SWAP1 DUP2 ADD SWAP3 DUP3 ISZERO PUSH2 0xB0 JUMPI SWAP2 PUSH1 0x20 MUL DUP3 ADD JUMPDEST DUP3 DUP2 GT ISZERO PUSH2 0xAF JUMPI DUP3 MLOAD DUP3 SSTORE SWAP2 PUSH1 0x20 ADD SWAP2 SWAP1 PUSH1 0x1 ADD SWAP1 PUSH2 0x94 JUMP JUMPDEST JUMPDEST POP SWAP1 POP PUSH2 0xBD SWAP2 SWAP1 PUSH2 0xC1 JUMP JUMPDEST POP SWAP1 JUMP JUMPDEST JUMPDEST DUP1 DUP3 GT ISZERO PUSH2 0xDA JUMPI PUSH1 0x0 DUP2 PUSH1 0x0 SWAP1 SSTORE POP PUSH1 0x1 ADD PUSH2 0xC2 JUMP JUMPDEST POP SWAP1 JUMP JUMPDEST PUSH2 0x5A4 DUP1 PUSH2 0xED PUSH1 0x0 CODECOPY PUSH1 0x0 RETURN INVALID PUSH1 0x80 PUSH1 0x40 MSTORE CALLVALUE DUP1 ISZERO PUSH2 0x10 JUMPI PUSH1 0x0 DUP1 REVERT JUMPDEST POP PUSH1 0x4 CALLDATASIZE LT PUSH2 0x7D JUMPI PUSH1 0x0 CALLDATALOAD PUSH1 0xE0 SHR DUP1 PUSH4 0x9EAB5253 GT PUSH2 0x5B JUMPI DUP1 PUSH4 0x9EAB5253 EQ PUSH2 0x110 JUMPI DUP1 PUSH4 0xA46ED0CA EQ PUSH2 0x16F JUMPI DUP1 PUSH4 0xA7F2EEA1 EQ PUSH2 0x1F2 JUMPI DUP1 PUSH4 0xA8A6CFFD EQ PUSH2 0x234 JUMPI PUSH2 0x7D JUMP JUMPDEST DUP1 PUSH4 0x2D883A73 EQ PUSH2 0x82 JUMPI DUP1 PUSH4 0x5B49E4B8 EQ PUSH2 0xC4 JUMPI DUP1 PUSH4 0x82A8181B EQ PUSH2 0x106 JUMPI JUMPDEST PUSH1 0x0 DUP1 REVERT JUMPDEST PUSH2 0xAE PUSH1 0x4 DUP1 CALLDATASIZE SUB PUSH1 0x20 DUP2 LT ISZERO PUSH2 0x98 JUMPI PUSH1 0x0 DUP1 REVERT JUMPDEST DUP2 ADD SWAP1 DUP1 DUP1 CALLDATALOAD SWAP1 PUSH1 0x20 ADD SWAP1 SWAP3 SWAP2 SWAP1 POP POP POP PUSH2 0x276 JUMP JUMPDEST PUSH1 0x40 MLOAD DUP1 DUP3 DUP2 MSTORE PUSH1 0x20 ADD SWAP2 POP POP PUSH1 0x40 MLOAD DUP1 SWAP2 SUB SWAP1 RETURN JUMPDEST PUSH2 0xF0 PUSH1 0x4 DUP1 CALLDATASIZE SUB PUSH1 0x20 DUP2 LT ISZERO PUSH2 0xDA JUMPI PUSH1 0x0 DUP1 REVERT JUMPDEST DUP2 ADD SWAP1 DUP1 DUP1 CALLDATALOAD SWAP1 PUSH1 0x20 ADD SWAP1 SWAP3 SWAP2 SWAP1 POP POP POP PUSH2 0x366 JUMP JUMPDEST PUSH1 0x40 MLOAD DUP1 DUP3 DUP2 MSTORE PUSH1 0x20 ADD SWAP2 POP POP PUSH1 0x40 MLOAD DUP1 SWAP2 SUB SWAP1 RETURN JUMPDEST PUSH2 0x10E PUSH2 0x3BC JUMP JUMPDEST STOP JUMPDEST PUSH2 0x118 PUSH2 0x453 JUMP JUMPDEST PUSH1 0x40 MLOAD DUP1 DUP1 PUSH1 0x20 ADD DUP3 DUP2 SUB DUP3 MSTORE DUP4 DUP2 DUP2 MLOAD DUP2 MSTORE PUSH1 0x20 ADD SWAP2 POP DUP1 MLOAD SWAP1 PUSH1 0x20 ADD SWAP1 PUSH1 0x20 MUL DUP1 DUP4 DUP4 PUSH1 0x0 JUMPDEST DUP4 DUP2 LT ISZERO PUSH2 0x15B JUMPI DUP1 DUP3 ADD MLOAD DUP2 DUP5 ADD MSTORE PUSH1 0x20 DUP2 ADD SWAP1 POP PUSH2 0x140 JUMP JUMPDEST POP POP POP POP SWAP1 POP ADD SWAP3 POP POP POP PUSH1 0x40 MLOAD DUP1 SWAP2 SUB SWAP1 RETURN JUMPDEST PUSH2 0x19B PUSH1 0x4 DUP1 CALLDATASIZE SUB PUSH1 0x20 DUP2 LT ISZERO PUSH2 0x185 JUMPI PUSH1 0x0 DUP1 REVERT JUMPDEST DUP2 ADD SWAP1 DUP1 DUP1 CALLDATALOAD SWAP1 PUSH1 0x20 ADD SWAP1 SWAP3 SWAP2 SWAP1 POP POP POP PUSH2 0x4AB JUMP JUMPDEST PUSH1 0x40 MLOAD DUP1 DUP1 PUSH1 0x20 ADD DUP3 DUP2 SUB DUP3 MSTORE DUP4 DUP2 DUP2 MLOAD DUP2 MSTORE PUSH1 0x20 ADD SWAP2 POP DUP1 MLOAD SWAP1 PUSH1 0x20 ADD SWAP1 PUSH1 0x20 MUL DUP1 DUP4 DUP4 PUSH1 0x0 JUMPDEST DUP4 DUP2 LT ISZERO PUSH2 0x1DE JUMPI DUP1 DUP3 ADD MLOAD DUP2 DUP5 ADD MSTORE PUSH1 0x20 DUP2 ADD SWAP1 POP PUSH2 0x1C3 JUMP JUMPDEST POP POP POP POP SWAP1 POP ADD SWAP3 POP POP POP PUSH1 0x40 MLOAD DUP1 SWAP2 SUB SWAP1 RETURN JUMPDEST PUSH2 0x21E PUSH1 0x4 DUP1 CALLDATASIZE SUB PUSH1 0x20 DUP2 LT ISZERO PUSH2 0x208 JUMPI PUSH1 0x0 DUP1 REVERT JUMPDEST DUP2 ADD SWAP1 DUP1 DUP1 CALLDATALOAD SWAP1 PUSH1 0x20 ADD SWAP1 SWAP3 SWAP2 SWAP1 POP POP POP PUSH2 0x4E5 JUMP JUMPDEST PUSH1 0x40 MLOAD DUP1 DUP3 DUP2 MSTORE PUSH1 0x20 ADD SWAP2 POP POP PUSH1 0x40 MLOAD DUP1 SWAP2 SUB SWAP1 RETURN JUMPDEST PUSH2 0x260 PUSH1 0x4 DUP1 CALLDATASIZE SUB PUSH1 0x20 DUP2 LT ISZERO PUSH2 0x24A JUMPI PUSH1 0x0 DUP1 REVERT JUMPDEST DUP2 ADD SWAP1 DUP1 DUP1 CALLDATALOAD SWAP1 PUSH1 0x20 ADD SWAP1 SWAP3 SWAP2 SWAP1 POP POP POP PUSH2 0x53F JUMP JUMPDEST PUSH1 0x40 MLOAD DUP1 DUP3 DUP2 MSTORE PUSH1 0x20 ADD SWAP2 POP POP PUSH1 0x40 MLOAD DUP1 SWAP2 SUB SWAP1 RETURN JUMPDEST PUSH1 0x0 DUP1 PUSH1 0x5 PUSH8 0xFFFFFFFFFFFFFFFF DUP2 GT DUP1 ISZERO PUSH2 0x291 JUMPI PUSH1 0x0 DUP1 REVERT JUMPDEST POP PUSH1 0x40 MLOAD SWAP1 DUP1 DUP3 MSTORE DUP1 PUSH1 0x20 MUL PUSH1 0x20 ADD DUP3 ADD PUSH1 0x40 MSTORE DUP1 ISZERO PUSH2 0x2C0 JUMPI DUP2 PUSH1 0x20 ADD PUSH1 0x20 DUP3 MUL DUP1 CALLDATASIZE DUP4 CALLDATACOPY DUP1 DUP3 ADD SWAP2 POP POP SWAP1 POP JUMPDEST POP SWAP1 POP PUSH1 0x1 DUP2 PUSH1 0x0 DUP2 MLOAD DUP2 LT PUSH2 0x2D2 JUMPI INVALID JUMPDEST PUSH1 0x20 MUL PUSH1 0x20 ADD ADD DUP2 DUP2 MSTORE POP POP PUSH1 0x2 DUP2 PUSH1 0x1 DUP2 MLOAD DUP2 LT PUSH2 0x2ED JUMPI INVALID JUMPDEST PUSH1 0x20 MUL PUSH1 0x20 ADD ADD DUP2 DUP2 MSTORE POP POP PUSH1 0x3 DUP2 PUSH1 0x2 DUP2 MLOAD DUP2 LT PUSH2 0x308 JUMPI INVALID JUMPDEST PUSH1 0x20 MUL PUSH1 0x20 ADD ADD DUP2 DUP2 MSTORE POP POP PUSH1 0x4 DUP2 PUSH1 0x3 DUP2 MLOAD DUP2 LT PUSH2 0x323 JUMPI INVALID JUMPDEST PUSH1 0x20 MUL PUSH1 0x20 ADD ADD DUP2 DUP2 MSTORE POP POP PUSH1 0x5 DUP2 PUSH1 0x4 DUP2 MLOAD DUP2 LT PUSH2 0x33E JUMPI INVALID JUMPDEST PUSH1 0x20 MUL PUSH1 0x20 ADD ADD DUP2 DUP2 MSTORE POP POP DUP1 DUP4 DUP2 MLOAD DUP2 LT PUSH2 0x356 JUMPI INVALID JUMPDEST PUSH1 0x20 MUL PUSH1 0x20 ADD ADD MLOAD SWAP2 POP POP SWAP2 SWAP1 POP JUMP JUMPDEST PUSH1 0x0 DUP1 DUP3 PUSH8 0xFFFFFFFFFFFFFFFF DUP2 GT DUP1 ISZERO PUSH2 0x380 JUMPI PUSH1 0x0 DUP1 REVERT JUMPDEST POP PUSH1 0x40 MLOAD SWAP1 DUP1 DUP3 MSTORE DUP1 PUSH1 0x20 MUL PUSH1 0x20 ADD DUP3 ADD PUSH1 0x40 MSTORE DUP1 ISZERO PUSH2 0x3AF JUMPI DUP2 PUSH1 0x20 ADD PUSH1 0x20 DUP3 MUL DUP1 CALLDATASIZE DUP4 CALLDATACOPY DUP1 DUP3 ADD SWAP2 POP POP SWAP1 POP JUMPDEST POP SWAP1 POP DUP1 MLOAD SWAP2 POP POP SWAP2 SWAP1 POP JUMP JUMPDEST PUSH1 0x9 PUSH1 0x0 DUP1 DUP2 SLOAD DUP2 LT PUSH2 0x3CB JUMPI INVALID JUMPDEST SWAP1 PUSH1 0x0 MSTORE PUSH1 0x20 PUSH1 0x0 KECCAK256 ADD DUP2 SWAP1 SSTORE POP PUSH1 0x8 PUSH1 0x0 PUSH1 0x1 DUP2 SLOAD DUP2 LT PUSH2 0x3E9 JUMPI INVALID JUMPDEST SWAP1 PUSH1 0x0 MSTORE PUSH1 0x20 PUSH1 0x0 KECCAK256 ADD DUP2 SWAP1 SSTORE POP PUSH1 0x7 PUSH1 0x0 PUSH1 0x2 DUP2 SLOAD DUP2 LT PUSH2 0x407 JUMPI INVALID JUMPDEST SWAP1 PUSH1 0x0 MSTORE PUSH1 0x20 PUSH1 0x0 KECCAK256 ADD DUP2 SWAP1 SSTORE POP PUSH1 0x6 PUSH1 0x0 PUSH1 0x3 DUP2 SLOAD DUP2 LT PUSH2 0x425 JUMPI INVALID JUMPDEST SWAP1 PUSH1 0x0 MSTORE PUSH1 0x20 PUSH1 0x0 KECCAK256 ADD DUP2 SWAP1 SSTORE POP PUSH1 0x5 PUSH1 0x0 PUSH1 0x4 DUP2 SLOAD DUP2 LT PUSH2 0x443 JUMPI INVALID JUMPDEST SWAP1 PUSH1 0x0 MSTORE PUSH1 0x20 PUSH1 0x0 KECCAK256 ADD DUP2 SWAP1 SSTORE POP JUMP JUMPDEST PUSH1 0x60 PUSH1 0x0 DUP1 SLOAD DUP1 PUSH1 0x20 MUL PUSH1 0x20 ADD PUSH1 0x40 MLOAD SWAP1 DUP2 ADD PUSH1 0x40 MSTORE DUP1 SWAP3 SWAP2 SWAP1 DUP2 DUP2 MSTORE PUSH1 0x20 ADD DUP3 DUP1 SLOAD DUP1 ISZERO PUSH2 0x4A1 JUMPI PUSH1 0x20 MUL DUP3 ADD SWAP2 SWAP1 PUSH1 0x0 MSTORE PUSH1 0x20 PUSH1 0x0 KECCAK256 SWAP1 JUMPDEST DUP2 SLOAD DUP2 MSTORE PUSH1 0x20 ADD SWAP1 PUSH1 0x1 ADD SWAP1 DUP1 DUP4 GT PUSH2 0x48D JUMPI JUMPDEST POP POP POP POP POP SWAP1 POP SWAP1 JUMP JUMPDEST PUSH1 0x60 PUSH1 0x0 DUP3 SWAP1 DUP1 PUSH1 0x1 DUP2 SLOAD ADD DUP1 DUP3 SSTORE DUP1 SWAP2 POP POP PUSH1 0x1 SWAP1 SUB SWAP1 PUSH1 0x0 MSTORE PUSH1 0x20 PUSH1 0x0 KECCAK256 ADD PUSH1 0x0 SWAP1 SWAP2 SWAP1 SWAP2 SWAP1 SWAP2 POP SSTORE PUSH2 0x4DE PUSH2 0x453 JUMP JUMPDEST SWAP1 POP SWAP2 SWAP1 POP JUMP JUMPDEST PUSH1 0x0 DUP1 DUP3 PUSH8 0xFFFFFFFFFFFFFFFF DUP2 GT DUP1 ISZERO PUSH2 0x4FF JUMPI PUSH1 0x0 DUP1 REVERT JUMPDEST POP PUSH1 0x40 MLOAD SWAP1 DUP1 DUP3 MSTORE DUP1 PUSH1 0x1F ADD PUSH1 0x1F NOT AND PUSH1 0x20 ADD DUP3 ADD PUSH1 0x40 MSTORE DUP1 ISZERO PUSH2 0x532 JUMPI DUP2 PUSH1 0x20 ADD PUSH1 0x1 DUP3 MUL DUP1 CALLDATASIZE DUP4 CALLDATACOPY DUP1 DUP3 ADD SWAP2 POP POP SWAP1 POP JUMPDEST POP SWAP1 POP DUP1 MLOAD SWAP2 POP POP SWAP2 SWAP1 POP JUMP JUMPDEST PUSH1 0x0 DUP1 DUP3 DUP2 SLOAD DUP2 LT PUSH2 0x54D JUMPI INVALID JUMPDEST SWAP1 PUSH1 0x0 MSTORE PUSH1 0x20 PUSH1 0x0 KECCAK256 ADD PUSH1 0x0 DUP2 SLOAD DUP1 SWAP3 SWAP2 SWAP1 PUSH1 0x1 SWAP1 SUB SWAP2 SWAP1 POP SSTORE SWAP1 POP SWAP2 SWAP1 POP JUMP INVALID LOG2 PUSH5 0x6970667358 0x22 SLT KECCAK256 0x21 RETURNDATACOPY 0xEC 0xEB 0xC 0xEB 0xEE 0xCB 0xA5 SLT SUB 0xA6 0xB3 0xC9 0xBC ISZERO PUSH23 0xEABBBDEE3A5593C0EA8A9BB777B34B64736F6C63430007 MOD STOP CALLER "
				},
				"gasEstimates": {
					"creation": {
						"codeDepositCost": "288800",
						"executionCost": "infinite",
						"totalCost": "infinite"
					},
					"external": {
						"findByIndex(uint256)": "22081",
						"getArraySize(uint256)": "infinite",
						"getByIndex(uint256)": "infinite",
						"getBytesSize(uint256)": "infinite",
						"getMembers()": "infinite",
						"initArray()": "104659",
						"pushMember(uint256)": "infinite"
					}
				},
				"methodIdentifiers": {
					"findByIndex(uint256)": "a8a6cffd",
					"getArraySize(uint256)": "5b49e4b8",
					"getByIndex(uint256)": "2d883a73",
					"getBytesSize(uint256)": "a7f2eea1",
					"getMembers()": "9eab5253",
					"initArray()": "82a8181b",
					"pushMember(uint256)": "a46ed0ca"
				}
			},
			"storageLayout": {
				"storage": [
					{
						"astId": 102,
						"contract": "contracts/demo3.sol:demo3",
						"label": "members",
						"offset": 0,
						"slot": "0",
						"type": "t_array(t_uint256)dyn_storage"
					}
				],
				"types": {
					"t_array(t_uint256)dyn_storage": {
						"base": "t_uint256",
						"encoding": "dynamic_array",
						"label": "uint256[]",
						"numberOfBytes": "32"
					},
					"t_uint256": {
						"encoding": "inplace",
						"label": "uint256",
						"numberOfBytes": "32"
					}
				}
			},
			"userdoc": {
				"kind": "user",
				"methods": {},
				"version": 1
			}
		}
	}
}