{
	"contracts/demo4.sol": {
		"demo4": {
			"abi": [
				{
					"inputs": [],
					"name": "geCurrentSize",
					"outputs": [
						{
							"internalType": "enum demo4.StarbuckSize",
							"name": "",
							"type": "uint8"
						}
					],
					"stateMutability": "view",
					"type": "function"
				},
				{
					"inputs": [],
					"name": "getDefaultSize",
					"outputs": [
						{
							"internalType": "enum demo4.StarbuckSize",
							"name": "",
							"type": "uint8"
						}
					],
					"stateMutability": "pure",
					"type": "function"
				},
				{
					"inputs": [],
					"name": "setVenti",
					"outputs": [],
					"stateMutability": "nonpayable",
					"type": "function"
				}
			],
			"devdoc": {
				"kind": "dev",
				"methods": {},
				"version": 1
			},
			"evm": {
				"assembly": "    /* \"contracts/demo4.sol\":64:502  contract demo4 {\r... */\n  mstore(0x40, 0x80)\n  callvalue\n  dup1\n  iszero\n  tag_1\n  jumpi\n  0x00\n  dup1\n  revert\ntag_1:\n  pop\n  dataSize(sub_0)\n  dup1\n  dataOffset(sub_0)\n  0x00\n  codecopy\n  0x00\n  return\nstop\n\nsub_0: assembly {\n        /* \"contracts/demo4.sol\":64:502  contract demo4 {\r... */\n      mstore(0x40, 0x80)\n      callvalue\n      dup1\n      iszero\n      tag_1\n      jumpi\n      0x00\n      dup1\n      revert\n    tag_1:\n      pop\n      jumpi(tag_2, lt(calldatasize, 0x04))\n      shr(0xe0, calldataload(0x00))\n      dup1\n      0x1d8beb3c\n      eq\n      tag_3\n      jumpi\n      dup1\n      0x792d4aa0\n      eq\n      tag_4\n      jumpi\n      dup1\n      0xf0849992\n      eq\n      tag_5\n      jumpi\n    tag_2:\n      0x00\n      dup1\n      revert\n        /* \"contracts/demo4.sol\":427:499  function setVenti() public  {\r... */\n    tag_3:\n      tag_6\n      tag_7\n      jump\t// in\n    tag_6:\n      stop\n        /* \"contracts/demo4.sol\":331:421  function geCurrentSize() public view returns (StarbuckSize) {\r... */\n    tag_4:\n      tag_8\n      tag_9\n      jump\t// in\n    tag_8:\n      mload(0x40)\n      dup1\n      dup3\n      0x04\n      dup2\n      gt\n      iszero\n      tag_10\n      jumpi\n      invalid\n    tag_10:\n      dup2\n      mstore\n      0x20\n      add\n      swap2\n      pop\n      pop\n      mload(0x40)\n      dup1\n      swap2\n      sub\n      swap1\n      return\n        /* \"contracts/demo4.sol\":227:325  function getDefaultSize() public pure returns (StarbuckSize) {\r... */\n    tag_5:\n      tag_11\n      tag_12\n      jump\t// in\n    tag_11:\n      mload(0x40)\n      dup1\n      dup3\n      0x04\n      dup2\n      gt\n      iszero\n      tag_13\n      jumpi\n      invalid\n    tag_13:\n      dup2\n      mstore\n      0x20\n      add\n      swap2\n      pop\n      pop\n      mload(0x40)\n      dup1\n      swap2\n      sub\n      swap1\n      return\n        /* \"contracts/demo4.sol\":427:499  function setVenti() public  {\r... */\n    tag_7:\n        /* \"contracts/demo4.sol\":473:491  StarbuckSize.VENTI */\n      0x03\n        /* \"contracts/demo4.sol\":466:470  size */\n      0x00\n      dup1\n        /* \"contracts/demo4.sol\":466:491  size = StarbuckSize.VENTI */\n      0x0100\n      exp\n      dup2\n      sload\n      dup2\n      0xff\n      mul\n      not\n      and\n      swap1\n      dup4\n      0x04\n      dup2\n      gt\n      iszero\n      tag_15\n      jumpi\n      invalid\n    tag_15:\n      mul\n      or\n      swap1\n      sstore\n      pop\n        /* \"contracts/demo4.sol\":427:499  function setVenti() public  {\r... */\n      jump\t// out\n        /* \"contracts/demo4.sol\":331:421  function geCurrentSize() public view returns (StarbuckSize) {\r... */\n    tag_9:\n        /* \"contracts/demo4.sol\":377:389  StarbuckSize */\n      0x00\n        /* \"contracts/demo4.sol\":409:413  size */\n      dup1\n      0x00\n      swap1\n      sload\n      swap1\n      0x0100\n      exp\n      swap1\n      div\n      0xff\n      and\n        /* \"contracts/demo4.sol\":402:413  return size */\n      swap1\n      pop\n        /* \"contracts/demo4.sol\":331:421  function geCurrentSize() public view returns (StarbuckSize) {\r... */\n      swap1\n      jump\t// out\n        /* \"contracts/demo4.sol\":227:325  function getDefaultSize() public pure returns (StarbuckSize) {\r... */\n    tag_12:\n        /* \"contracts/demo4.sol\":274:286  StarbuckSize */\n      0x00\n        /* \"contracts/demo4.sol\":201:218  StarbuckSize.TALL */\n      0x01\n        /* \"contracts/demo4.sol\":299:317  return defaultSize */\n      swap1\n      pop\n        /* \"contracts/demo4.sol\":227:325  function getDefaultSize() public pure returns (StarbuckSize) {\r... */\n      swap1\n      jump\t// out\n\n    auxdata: 0xa26469706673582212201309154a32fd890eef83155203bee285d7b3677c9717afdf9ad65e94b74b21b864736f6c63430007060033\n}\n",
				"bytecode": {
					"linkReferences": {},
					"object": "608060405234801561001057600080fd5b5061010e806100206000396000f3fe6080604052348015600f57600080fd5b5060043610603c5760003560e01c80631d8beb3c146041578063792d4aa0146049578063f084999214606f575b600080fd5b60476095565b005b604f60b9565b60405180826004811115605e57fe5b815260200191505060405180910390f35b607560cf565b60405180826004811115608457fe5b815260200191505060405180910390f35b60036000806101000a81548160ff0219169083600481111560b257fe5b0217905550565b60008060009054906101000a900460ff16905090565b6000600190509056fea26469706673582212201309154a32fd890eef83155203bee285d7b3677c9717afdf9ad65e94b74b21b864736f6c63430007060033",
					"opcodes": "PUSH1 0x80 PUSH1 0x40 MSTORE CALLVALUE DUP1 ISZERO PUSH2 0x10 JUMPI PUSH1 0x0 DUP1 REVERT JUMPDEST POP PUSH2 0x10E DUP1 PUSH2 0x20 PUSH1 0x0 CODECOPY PUSH1 0x0 RETURN INVALID PUSH1 0x80 PUSH1 0x40 MSTORE CALLVALUE DUP1 ISZERO PUSH1 0xF JUMPI PUSH1 0x0 DUP1 REVERT JUMPDEST POP PUSH1 0x4 CALLDATASIZE LT PUSH1 0x3C JUMPI PUSH1 0x0 CALLDATALOAD PUSH1 0xE0 SHR DUP1 PUSH4 0x1D8BEB3C EQ PUSH1 0x41 JUMPI DUP1 PUSH4 0x792D4AA0 EQ PUSH1 0x49 JUMPI DUP1 PUSH4 0xF0849992 EQ PUSH1 0x6F JUMPI JUMPDEST PUSH1 0x0 DUP1 REVERT JUMPDEST PUSH1 0x47 PUSH1 0x95 JUMP JUMPDEST STOP JUMPDEST PUSH1 0x4F PUSH1 0xB9 JUMP JUMPDEST PUSH1 0x40 MLOAD DUP1 DUP3 PUSH1 0x4 DUP2 GT ISZERO PUSH1 0x5E JUMPI INVALID JUMPDEST DUP2 MSTORE PUSH1 0x20 ADD SWAP2 POP POP PUSH1 0x40 MLOAD DUP1 SWAP2 SUB SWAP1 RETURN JUMPDEST PUSH1 0x75 PUSH1 0xCF JUMP JUMPDEST PUSH1 0x40 MLOAD DUP1 DUP3 PUSH1 0x4 DUP2 GT ISZERO PUSH1 0x84 JUMPI INVALID JUMPDEST DUP2 MSTORE PUSH1 0x20 ADD SWAP2 POP POP PUSH1 0x40 MLOAD DUP1 SWAP2 SUB SWAP1 RETURN JUMPDEST PUSH1 0x3 PUSH1 0x0 DUP1 PUSH2 0x100 EXP DUP2 SLOAD DUP2 PUSH1 0xFF MUL NOT AND SWAP1 DUP4 PUSH1 0x4 DUP2 GT ISZERO PUSH1 0xB2 JUMPI INVALID JUMPDEST MUL OR SWAP1 SSTORE POP JUMP JUMPDEST PUSH1 0x0 DUP1 PUSH1 0x0 SWAP1 SLOAD SWAP1 PUSH2 0x100 EXP SWAP1 DIV PUSH1 0xFF AND SWAP1 POP SWAP1 JUMP JUMPDEST PUSH1 0x0 PUSH1 0x1 SWAP1 POP SWAP1 JUMP INVALID LOG2 PUSH5 0x6970667358 0x22 SLT KECCAK256 SGT MULMOD ISZERO 0x4A ORIGIN REVERT DUP10 0xE 0xEF DUP4 ISZERO MSTORE SUB 0xBE 0xE2 DUP6 0xD7 0xB3 PUSH8 0x7C9717AFDF9AD65E SWAP5 0xB7 0x4B 0x21 0xB8 PUSH5 0x736F6C6343 STOP SMOD MOD STOP CALLER "
				},
				"gasEstimates": {
					"creation": {
						"codeDepositCost": "54000",
						"executionCost": "105",
						"totalCost": "54105"
					},
					"external": {
						"geCurrentSize()": "1075",
						"getDefaultSize()": "261",
						"setVenti()": "21009"
					}
				},
				"methodIdentifiers": {
					"geCurrentSize()": "792d4aa0",
					"getDefaultSize()": "f0849992",
					"setVenti()": "1d8beb3c"
				}
			},
			"storageLayout": {
				"storage": [
					{
						"astId": 9,
						"contract": "contracts/demo4.sol:demo4",
						"label": "size",
						"offset": 0,
						"slot": "0",
						"type": "t_enum(StarbuckSize)7"
					}
				],
				"types": {
					"t_enum(StarbuckSize)7": {
						"encoding": "inplace",
						"label": "enum demo4.StarbuckSize",
						"numberOfBytes": "1"
					}
				}
			},
			"userdoc": {
				"kind": "user",
				"methods": {},
				"version": 1
			}
		}
	}
}